:0300000002810872
:0C810800787FE4F6D8FD75817E02814F7F
:108818003F065B4F666D7D077F6F777C395E7971A8
:068828000005040606062F
:10828C00011100011200011300011400011600017C
:10829C001501011701011A01011D00012001010E38
:1082AC0000011000010C00010D0002180000021B5F
:1082BC000000021E0000072A000012010102130731
:1082CC0031000012010102130738000012010102F3
:1082DC0013073F00001201010213074600001201B0
:0C82EC00010213074D00001201010213F3
:0B890100EF1FAC0670011E4C70F62248
:10840C00E4FDED14601014601714601E2403702238
:10841C00C2A4D2A58004D2A4C2A5D2A6D2A780128F
:10842C00D2A4D2A5C2A6D2A78008D2A4D2A5D2A685
:10843C00C2A774222DF8E6F5807FF47E0112890123
:07844C00E4F5800DBD04BB47
:018453002206
:10887E00438901758CFC758A18D2A9D2AFD28C228D
:047DAA008E548F550F
:107DAE00E4F55678577C00FD7BFF7A887929FE7FB3
:107DBE0005127CACC3E55464809480501C756C1025
:107DCE007B2DE4FD7F5A128076E555155570021510
:107DDE00546355FF6354FF800C756C107B2BE4FDD0
:107DEE007F5A128076AC54AD55EC127B228F5F8E8B
:107DFE005E8D5D8C5CE4FFFE7DC87C40AB5FAA5E51
:107E0E00A95DA85C127A17E4FBFAF9783F1279267D
:107E1E00127B5B8E548F55AE54AF557C277D10125E
:107E2E007D668F57AE54AF557C277D10127D667ED2
:107E3E00037FE8CFCDCFCECCCE127D668F58AE5419
:107E4E00AF557C037DE8127D667E007F64CFCDCF7B
:107E5E00CECCCE127D668F59AE54AF557C007D646C
:107E6E00127D667E007F0ACFCDCFCECCCE127D6640
:107E7E008F5AAE54AF557C007D0A127D668D5BE540
:107E8E0058FB7A00756401756510E4FD7F631282FC
:107E9E0012E559FB7A00756401756510E4FD7F6C7F
:107EAE00128212756C107B2EE4FD7F75128076E5C2
:107EBE005AFB7A00756401756510E4FD7F780282C5
:017ECE0012A1
:10888E00438910758DFC758B18D2ABD2AFD28E2268
:10001E00128927127ECF12872512887E12888E12A1
:10002E00862420971B0516E516D394014003E4F5AC
:10003E0016128860128860128860128860128860BA
:10004E0012882EE570C4540F75F024A424E7F974B9
:10005E007135F07558FFF559895A7557057B157D21
:10006E00027F09128302E570540F75F024A424E771
:10007E00F9747135F07558FFF559895A7557057B26
:10008E00227D027F161283027557057558FF75592A
:10009E0074755ADB7B2F7D027F23128302E56FC4BA
:1000AE00540F75F024A424E7F9747135F07558FFD8
:1000BE00F559895A7557057B3C7D027F30128302B4
:1000CE00E56F540F75F024A424E7F9747135F075BB
:1000DE0058FFF559895A7557057B497D027F3D12A8
:1000EE0083027557057558FF755974755ADB7B5623
:1000FE007D027F4A128302E56EC4540F75F024A46C
:10010E0024E7F9747135F07558FFF559895A75570A
:10011E00057B637D027F57128302E56E540F75F0E7
:10012E0024A424E7F9747135F07558FFF559895AEE
:10013E007557057B707D027F6412830275640175AD
:10014E0065107B027A00E4FDFF1282127564017560
:10015E006510E4FBFAFD7F08128212E574C4540F99
:10016E00FB7A00756401756510E4FD7F1112821231
:10017E00E574540FFB7A00756401756510E4FD7F1C
:10018E001A128212756C107B2FE4FD7F231280767B
:10019E00E572C4540FFB7A00756401756510E4FDB9
:1001AE007F2C128212E572540FFB7A007564017572
:1001BE006510E4FD7F35128212756C107B2FE4FD05
:1001CE007F3E128076E571C4540FFB7A0075640190
:1001DE00756510E4FD7F47128212E571540FFB7AAC
:1001EE0000756401756510E4FD7F50128212E5738F
:1001FE00540775F020A424FFF9747435F07558FF78
:10020E00F559895A7557087B7F7D067F6F128302D9
:10021E007557087558FF755974755AFF7B5D7D06C5
:10022E007F4D1283027557087558FF755975755AAB
:10023E00FF7B6E7D067F5E1283027557087558FF31
:10024E00755976755A1F7B107D06E4FF1283027571
:10025E0057087558FF755976755A3F7B217D067F75
:10026E0011128302128801127DAAE513B41E061222
:10027E008725751314E56FC4540FFFE52BC4540F77
:10028E006F7046E56F540FFFE52B540F6F703AE514
:10029E006EC4540FFFE52AC4540FB5072CE56E54F7
:1002AE000FFFE52A540FB50720E570C4540FFFE584
:1002BE002CC4540FB50712E570540FFFE52C540FE4
:1002CE00B50706751B00751C05E56FC4540FFFE5D9
:1002DE0032C4540F6F7046E56F540FFFE532540F62
:1002EE006F703AE56EC4540FFFE531C4540FB50775
:1002FE002CE56E540FFFE531540FB50720E570C4A1
:10030E00540FFFE533C4540FB50712E570540FFFB9
:10031E00E533540FB50706751B00751C05E56FC454
:10032E00540FFFE539C4540F6F7046E56F540FFF3D
:10033E00E539540F6F703AE56EC4540FFFE538C4BB
:10034E00540FB5072CE56E540FFFE538540FB50763
:10035E0020E570C4540FFFE53AC4540FB50712E5FB
:10036E0070540FFFE53A540FB50706751B00751C48
:10037E0005E56FC4540FFFE540C4540F6F7046E59A
:10038E006F540FFFE540540F6F703AE56EC4540F73
:10039E00FFE53FC4540FB5072CE56E540FFFE53F44
:1003AE00540FB50720E570C4540FFFE541C4540F38
:1003BE00B50712E570540FFFE541540FB5070675EA
:1003CE001B00751C05E56FC4540FFFE547C4540FA1
:1003DE006F7046E56F540FFFE547540F6F703AE5A7
:1003EE006EC4540FFFE546C4540FB5072CE56E548A
:1003FE000FFFE546540FB50720E570C4540FFFE517
:10040E0048C4540FB50712E570540FFFE548540F5A
:10041E00B50706751B00751C05E56FC4540FFFE587
:10042E004EC4540F6F7046E56F540FFFE54E540FD8
:10043E006F703AE56EC4540FFFE54DC4540FB50707
:10044E002CE56E540FFFE54D540FB50720E570C433
:10045E00540FFFE54FC4540FB50712E570540FFF4C
:10046E00E54F540FB50706751B00751C05E51664A0
:10047E00016003020030E51564016003020030E5FF
:10048E001164016015E5126401600FE514640160EA
:10049E0009E51664016003020030E515640160038E
:1004AE0002003020971B0516E516D394014003E495
:1004BE00F5161288601288601288601288601288A1
:1004CE006012882E209512751305128860128860AE
:1004DE00128860128860128860E570C4540F75F03F
:1004EE0024A424E7F9747135F07558FFF559895A2B
:1004FE007557057B157D027F09128302E570540F37
:10050E0075F024A424E7F9747135F07558FFF55988
:10051E00895A7557057B227D027F16128302755705
:10052E00057558FF755974755ADB7B2F7D027F2335
:10053E00128302E56FC4540F75F024A424E7F974F6
:10054E007135F07558FFF559895A7557057B3C7D05
:10055E00027F30128302E56F540F75F024A424E756
:10056E00F9747135F07558FFF559895A7557057B31
:10057E00497D027F3D1283027557057558FF7559E7
:10058E0074755ADB7B567D027F4A128302E56EC478
:10059E00540F75F024A424E7F9747135F07558FFE3
:1005AE00F559895A7557057B637D027F5712830271
:1005BE00E56E540F75F024A424E7F9747135F075C7
:1005CE0058FFF559895A7557057B707D027F641265
:1005DE0083027564017565107B027A00E4FDFF12DB
:1005EE008212756401756510E4FBFAFD7F081282B4
:1005FE0012E574C4540FFB7A00756401756510E43E
:10060E00FD7F11128212E574540FFB7A007564019E
:10061E00756510E4FD7F1A128212756C107B2FE443
:10062E00FD7F23128076E572C4540FFB7A00756449
:10063E0001756510E4FD7F2C128212E572540FFBDA
:10064E007A00756401756510E4FD7F3512821275AE
:10065E006C107B2FE4FD7F3E128076E571C4540F43
:10066E00FB7A00756401756510E4FD7F47128212F6
:10067E00E571540FFB7A00756401756510E4FD7F1A
:10068E0050128212E573540775F020A424FFF974FA
:10069E007435F07558FFF559895A7557087B7F7D6B
:1006AE00067F6F1283027557087558FF755974755A
:1006BE005AFF7B5D7D067F4D128302755708755874
:1006CE00FF755975755AFF7B6E7D067F5E1283022C
:1006DE007557087558FF755977755A3F7B107D060B
:1006EE00E4FF1283027557087558FF755977755ACE
:1006FE005F7B217D067F11128302128801127DAA73
:10070E00E5136405600302048DF514F516128725B2
:10071E00E5136405600302048D7557037558FF7564
:10072E005977755ADF7B307D017F20128302755712
:10073E00037558FF755977755AFF7B437D017F31DD
:10074E001283027557037558FF755978755A1F7BBA
:10075E00557D017F441283027557037558FF7559F5
:10076E0078755A3F7B667D017F5612830275570658
:10077E007558FF755976755ADF7B307D047F2012D0
:10078E0083027557067558FF755976755AFF7B4368
:10079E007D047F311283027557067558FF755977A0
:1007AE00755A1F7B557D047F44128302755706755B
:1007BE0058FF755977755A7F7B667D047F56128375
:1007CE00027557087558FF755977755A9F7B107DBE
:1007DE0006E4FF1283027557087558FF7559777531
:1007EE005ABF7B217D067F11128302209524751737
:1007FE00027520011288601288601288601288606B
:10080E0012886012886012886012886012886012E6
:10081E008860209420051412886012886012886007
:10082E0012886012886012886012886012886012C6
:10083E0088601288602097200516128860128860E2
:10084E0012886012886012886012886012886012A6
:10085E008860128860128860E514D394034003E424
:10086E00F514E516D394034003E4F516E520700D58
:10087E00E517700912872575200A75170AE51764A2
:10088E000260030227B9128725E51764026003028E
:10089E0027B9E570C4540F75F024A424E7F97471D8
:1008AE0035F07558FFF559895A7557057B157D0238
:1008BE007F09128302E570540F75F024A424E7F922
:1008CE00747135F07558FFF559895A7557057B22A5
:1008DE007D027F161283027557057558FF75597480
:1008EE00755ADB7B2F7D027F23128302E56FC45482
:1008FE000F75F024A424E7F9747135F07558FFF5DF
:10090E0059895A7557057B3C7D027F30128302E56B
:10091E006F540F75F024A424E7F9747135F07558EF
:10092E00FFF559895A7557057B497D027F3D128324
:10093E00027557057558FF755974755ADB7B567DD0
:10094E00027F4A128302E56EC4540F75F024A4246C
:10095E00E7F9747135F07558FFF559895A755705D1
:10096E007B637D027F57128302E56E540F75F02470
:10097E00A424E7F9747135F07558FFF559895A7545
:10098E0057057B707D027F64128302755708755878
:10099E00FF755977755A9F7B107D06E4FF1283020F
:1009AE007557087558FF755977755ABF7B217D06A7
:1009BE007F111283027564017565107B027A00E463
:1009CE00FDFF128212756401756510E4FBFAFD7F5E
:1009DE0008128212E574C4540FFB7A007564017517
:1009EE006510E4FD7F11128212E574540FFB7A003C
:1009FE00756401756510E4FD7F1A128212756C1014
:100A0E007B2FE4FD7F23128076E572C4540FFB7AB0
:100A1E0000756401756510E4FD7F2C128212E5727B
:100A2E00540FFB7A00756401756510E4FD7F351275
:100A3E008212756C107B2FE4FD7F3E128076E5717D
:100A4E00C4540FFB7A00756401756510E4FD7F4791
:100A5E00128212E571540FFB7A00756401756510F0
:100A6E00E4FD7F5012821220931D151DC3E51D64F7
:100A7E008094805003751D0D128860128860128854
:100A8E006012886012886020961D051DD3E51D64D6
:100A9E0080948C4003E4F51D1288601288601288E1
:100AAE0060128860128860E5206401600302089776
:100ABE0020931D151DC3E51D648094805003751D84
:100ACE000D12886012886012886012886012886029
:100ADE0020961D051DD3E51D6480948D4003E4F51D
:100AEE001D128860128860128860128860128860F9
:100AFE00E51DB40E0050B0900B0CF8282873020BB5
:100B0E0036020CDB020E8D02106702124E02145DCD
:100B1E000216790218A5021AC9021CF5021F190243
:100B2E002145022549022369E570C4540F75F0244E
:100B3E00A424E7F9747135F07558FFF559895A7583
:100B4E0057057B157D027F09128302E570540F75E0
:100B5E00F024A424E7F9747135F07558FFF559891E
:100B6E005A7557057B227D027F1612830275570533
:100B7E007558FF755974755ADB7B2F7D027F2312D2
:100B8E008302E56FC4540F75F024A424E7F9747141
:100B9E0035F07558FFF559895A7557057B3C7D021E
:100BAE007F30128302E56F540F75F024A424E7F909
:100BBE00747135F07558FFF559895A7557057B498B
:100BCE007D027F3D1283027557057558FF75597466
:100BDE00755ADB7B567D027F4A128302E56EC45442
:100BEE000F75F024A424E7F9747135F07558FFF5EC
:100BFE0059895A7557057B637D027F57128302E52B
:100C0E006E540F75F024A424E7F9747135F07558FD
:100C1E00FFF559895A7557057B707D027F641283E3
:100C2E000220942774102574F57412869C12886025
:100C3E0012886012886012886012886012886012B2
:100C4E00886012886012886012886020972774F07E
:100C5E002574F57412869C12886012886012886062
:100C6E001288601288601288601288601288601282
:100C7E0088601288607557087558FF755977755AD0
:100C8E009F7B107D06E4FF1283027557087558FF8F
:100C9E00755977755ABF7B217D067F1112830275B8
:100CAE0064017565107B027A00E4FDFF12821275F5
:100CBE006401756510E4FBFAFD7F08128212756CF3
:100CCE00107B2AE4FD7F11128076021824E570C491
:100CDE00540F75F024A424E7F9747135F07558FF9C
:100CEE00F559895A7557057B157D027F09128302C6
:100CFE00E570540F75F024A424E7F9747135F0757E
:100D0E0058FFF559895A7557057B227D027F1612B9
:100D1E0083027557057558FF755974755ADB7B2F0D
:100D2E007D027F23128302E56FC4540F75F024A455
:100D3E0024E7F9747135F07558FFF559895A7557CE
:100D4E00057B3C7D027F30128302E56F540F75F0F8
:100D5E0024A424E7F9747135F07558FFF559895AB2
:100D6E007557057B497D027F3D12830275570575C8
:100D7E0058FF755974755ADB7B567D027F4A128374
:100D8E0002E56EC4540F75F024A424E7F97471358E
:100D9E00F07558FFF559895A7557057B637D027FAB
:100DAE0057128302E56E540F75F024A424E7F974EC
:100DBE007135F07558FFF559895A7557057B707D59
:100DCE00027F64128302209423057412869C12887B
:100DDE0060128860128860128860128860128860C3
:100DEE00128860128860128860128860209723151E
:100DFE007412869C12886012886012886012886055
:100E0E0012886012886012886012886012886012E0
:100E1E0088607557087558FF755977755A9F7B10FE
:100E2E007D06E4FF1283027557087558FF755977D2
:100E3E00755ABF7B217D067F111283027564017581
:100E4E0065107B027A00E4FDFF1282127564017553
:100E5E006510E4FBFAFD7F08128212E574C4540F8C
:100E6E00FB7A00756401756510E4FD7F1112821224
:100E7E00756C107B2AE4FD7F1A128076021838E515
:100E8E0070C4540F75F024A424E7F9747135F0750D
:100E9E0058FFF559895A7557057B157D027F091242
:100EAE008302E570540F75F024A424E7F9747135AC
:100EBE00F07558FFF559895A7557057B227D027FCB
:100ECE00161283027557057558FF755974755ADBDE
:100EDE007B2F7D027F23128302E56FC4540F75F0C2
:100EEE0024A424E7F9747135F07558FFF559895A21
:100EFE007557057B3C7D027F30128302E56F540FE0
:100F0E0075F024A424E7F9747135F07558FFF5597E
:100F1E00895A7557057B497D027F3D1283027557AD
:100F2E00057558FF755974755ADB7B567D027F4ADD
:100F3E00128302E56EC4540F75F024A424E7F974ED
:100F4E007135F07558FFF559895A7557057B637DD4
:100F5E00027F57128302E56E540F75F024A424E726
:100F6E00F9747135F07558FFF559895A7557057B27
:100F7E00707D027F6412830220942774102572F50F
:100F8E007212869C128860128860128860128860C5
:100F9E00128860128860128860128860128860124F
:100FAE00886020972774F02572F57212869C12883D
:100FBE0060128860128860128860128860128860E1
:100FCE0012886012886012886012886075570875E2
:100FDE0058FF755977755A9F7B107D06E4FF128373
:100FEE00027557087558FF755977755ABF7B217D65
:100FFE00067F111283027564017565107B027A00FB
:10100E00E4FDFF128212756401756510E4FBFAFDB2
:10101E007F08128212E574C4540FFB7A00756401C6
:10102E00756510E4FD7F11128212E574540FFB7A80
:10103E0000756401756510E4FD7F1A128212756CDD
:10104E00107B2FE4FD7F23128076756C107B2AE4D3
:10105E00FD7F2C128076021859E570C4540F75F07E
:10106E0024A424E7F9747135F07558FFF559895A9F
:10107E007557057B157D027F09128302E570540FAB
:10108E0075F024A424E7F9747135F07558FFF559FD
:10109E00895A7557057B227D027F1612830275577A
:1010AE00057558FF755974755ADB7B2F7D027F23AA
:1010BE00128302E56FC4540F75F024A424E7F9746B
:1010CE007135F07558FFF559895A7557057B3C7D7A
:1010DE00027F30128302E56F540F75F024A424E7CB
:1010EE00F9747135F07558FFF559895A7557057BA6
:1010FE00497D027F3D1283027557057558FF75595C
:10110E0074755ADB7B567D027F4A128302E56EC4EC
:10111E00540F75F024A424E7F9747135F07558FF57
:10112E00F559895A7557057B637D027F57128302E5
:10113E00E56E540F75F024A424E7F9747135F0753B
:10114E0058FFF559895A7557057B707D027F6412D9
:10115E008302209423057212869C12886012886086
:10116E00128860128860128860128860128860127D
:10117E008860128860128860209723157212869CF0
:10118E00128860128860128860128860128860125D
:10119E0088601288601288601288601288607557A5
:1011AE00087558FF755977755A9F7B107D06E4FFB9
:1011BE001283027557087558FF755977755ABF7B9C
:1011CE00217D067F111283027564017565107B0205
:1011DE007A00E4FDFF128212756401756510E4FB5E
:1011EE00FAFD7F08128212E574C4540FFB7A007563
:1011FE006401756510E4FD7F11128212E574540FBF
:10120E00FB7A00756401756510E4FD7F1A12821277
:10121E00756C107B2FE4FD7F23128076E572C4542B
:10122E000FFB7A00756401756510E4FD7F2C128248
:10123E0012756C107B2AE4FD7F3512807602186DD4
:10124E00E570C4540F75F024A424E7F9747135F0D9
:10125E007558FFF559895A7557057B157D027F091B
:10126E00128302E570540F75F024A424E7F974710B
:10127E0035F07558FFF559895A7557057B227D0251
:10128E007F161283027557057558FF755974755A76
:10129E00DB7B2F7D027F23128302E56FC4540F7513
:1012AE00F024A424E7F9747135F07558FFF55989C7
:1012BE005A7557057B3C7D027F30128302E56F54D1
:1012CE000F75F024A424E7F9747135F07558FFF505
:1012DE0059895A7557057B497D027F3D12830275E8
:1012EE0057057558FF755974755ADB7B567D027F0D
:1012FE004A128302E56EC4540F75F024A424E7F954
:10130E00747135F07558FFF559895A7557057B6319
:10131E007D027F57128302E56E540F75F024A424CC
:10132E00E7F9747135F07558FFF559895A755705F7
:10133E007B707D027F6412830220942774102571C6
:10134E00F57112869C12886012886012886012886D
:10135E00601288601288601288601288601288603D
:10136E0012886020972774F02571F57112869C12F1
:10137E0088601288601288601288601288601288F5
:10138E006012886012886012886012886075570833
:10139E007558FF755977755A9F7B107D06E4FF12BD
:1013AE0083027557087558FF755977755ABF7B219B
:1013BE007D067F111283027564017565107B027ABA
:1013CE0000E4FDFF128212756401756510E4FBFAEC
:1013DE00FD7F08128212E574C4540FFB7A00756407
:1013EE0001756510E4FD7F11128212E574540FFB36
:1013FE007A00756401756510E4FD7F1A128212750C
:10140E006C107B2FE4FD7F23128076E572C4540F9F
:10141E00FB7A00756401756510E4FD7F2C12821253
:10142E00E572540FFB7A00756401756510E4FD7F5B
:10143E0035128212756C107B2FE4FD7F3E12807682
:10144E00756C107B2AE4FD7F4712807602188EE5BC
:10145E0070C4540F75F024A424E7F9747135F07537
:10146E0058FFF559895A7557057B157D027F09126C
:10147E008302E570540F75F024A424E7F9747135D6
:10148E00F07558FFF559895A7557057B227D027FF5
:10149E00161283027557057558FF755974755ADB08
:1014AE007B2F7D027F23128302E56FC4540F75F0EC
:1014BE0024A424E7F9747135F07558FFF559895A4B
:1014CE007557057B3C7D027F30128302E56F540F0A
:1014DE0075F024A424E7F9747135F07558FFF559A9
:1014EE00895A7557057B497D027F3D1283027557D8
:1014FE00057558FF755974755ADB7B567D027F4A08
:10150E00128302E56EC4540F75F024A424E7F97417
:10151E007135F07558FFF559895A7557057B637DFE
:10152E00027F57128302E56E540F75F024A424E750
:10153E00F9747135F07558FFF559895A7557057B51
:10154E00707D027F64128302209423057112869CA3
:10155E001288601288601288601288601288601289
:10156E0088601288601288601288601288602097E6
:10157E0023157112869C1288601288601288601280
:10158E0088601288601288601288601288601288E3
:10159E00601288607557087558FF755977755A9F90
:1015AE007B107D06E4FF1283027557087558FF7590
:1015BE005977755ABF7B217D067F111283027564A0
:1015CE00017565107B027A00E4FDFF1282127564CC
:1015DE0001756510E4FBFAFD7F08128212E574C4F2
:1015EE00540FFB7A00756401756510E4FD7F1112CE
:1015FE008212E574540FFB7A00756401756510E470
:10160E00FD7F1A128212756C107B2FE4FD7F231260
:10161E008076E572C4540FFB7A007564017565100F
:10162E00E4FD7F2C128212E572540FFB7A00756472
:10163E0001756510E4FD7F35128212756C107B2FDB
:10164E00E4FD7F3E128076E571C4540FFB7A00757F
:10165E006401756510E4FD7F47128212756C107B74
:10166E002AE4FD7F5012807602276AE570C4540F7B
:10167E0075F024A4244FF9747335F07558FFF5599D
:10168E00895A7557057B157D027F09128302E57015
:10169E00540F75F024A424E7F9747135F07558FFD2
:1016AE00F559895A7557057B227D027F16128302E2
:1016BE007557057558FF755974755ADB7B2F7D026A
:1016CE007F23128302E56FC4540F75F024A424E720
:1016DE00F9747135F07558FFF559895A7557057BB0
:1016EE003C7D027F30128302E56F540F75F024A407
:1016FE0024E7F9747135F07558FFF559895A755705
:10170E00057B497D027F3D1283027557057558FF93
:10171E00755974755ADB7B567D027F4A128302E53A
:10172E006EC4540F75F024A424E7F9747135F07566
:10173E0058FFF559895A7557057B637D027F5712FD
:10174E008302E56E540F75F024A424E7F974713505
:10175E00F07558FFF559895A7557057B707D027FD4
:10176E006412830220942774102570F57012869CE3
:10177E001288601288601288601288601288601267
:10178E0088601288601288601288601288602097C4
:10179E002774F02570F57012869C1288601288608E
:1017AE001288601288601288601288601288601237
:1017BE0088601288601288607557087558FF7559D1
:1017CE0077755A9F7B107D06E4FF128302755708CA
:1017DE007558FF755977755ABF7B217D067F11129B
:1017EE0083027564017565107B027A00E4FDFF12B9
:1017FE008212756401756510E4FBFAFD7F08128292
:10180E0012E574C4540FFB7A00756401756510E41B
:10181E00FD7F11128212E574540FFB7A007564017C
:10182E00756510E4FD7F1A128212756C107B2FE421
:10183E00FD7F23128076E572C4540FFB7A00756427
:10184E0001756510E4FD7F2C128212E572540FFBB8
:10185E007A00756401756510E4FD7F35128212758C
:10186E006C107B2FE4FD7F3E128076E571C4540F21
:10187E00FB7A00756401756510E4FD7F47128212D4
:10188E00E571540FFB7A00756401756510E4FD7FF8
:10189E005012821202276AE570C4540F75F024A408
:1018AE0024E7F9747135F07558FFF559895A755753
:1018BE00057B157D027F09128302E570540F75F0CA
:1018CE0024A4244FF9747335F07558FFF559895ACD
:1018DE007557057B227D027F16128302755705759B
:1018EE0058FF755974755ADB7B2F7D027F23128347
:1018FE0002E56FC4540F75F024A424E7F974713512
:10190E00F07558FFF559895A7557057B3C7D027F56
:10191E0030128302E56F540F75F024A424E7F97496
:10192E007135F07558FFF559895A7557057B497D04
:10193E00027F3D1283027557057558FF75597475F0
:10194E005ADB7B567D027F4A128302E56EC4540F2A
:10195E0075F024A424E7F9747135F07558FFF55924
:10196E00895A7557057B637D027F57128302E56E98
:10197E00540F75F024A424E7F9747135F07558FFEF
:10198E00F559895A7557057B707D027F6412830263
:10199E00209423057012869C12886012886012882B
:1019AE0060128860128860128860128860128860E7
:1019BE00128860128860209723157012869C1288F8
:1019CE0060128860128860128860128860128860C7
:1019DE0012886012886012886012886075570875C8
:1019EE0058FF755977755A9F7B107D06E4FF128359
:1019FE00027557087558FF755977755ABF7B217D4B
:101A0E00067F111283027564017565107B027A00E0
:101A1E00E4FDFF128212756401756510E4FBFAFD98
:101A2E007F08128212E574C4540FFB7A00756401AC
:101A3E00756510E4FD7F11128212E574540FFB7A66
:101A4E0000756401756510E4FD7F1A128212756CC3
:101A5E00107B2FE4FD7F23128076E572C4540FFBBA
:101A6E007A00756401756510E4FD7F2C128212E513
:101A7E0072540FFB7A00756401756510E4FD7F35B5
:101A8E00128212756C107B2FE4FD7F3E128076E57C
:101A9E0071C4540FFB7A00756401756510E4FD7F07
:101AAE0047128212E571540FFB7A00756401756559
:101ABE0010E4FD7F5012821202276AE570C4540FA3
:101ACE0075F024A424E7F9747135F07558FFF559B3
:101ADE00895A7557057B157D027F09128302E570C1
:101AEE00540F75F024A424E7F9747135F07558FF7E
:101AFE00F559895A7557057B227D027F161283028E
:101B0E007557057558FF755974755ADB7B2F7D0215
:101B1E007F23128302E56FC4540F75F024A4244F63
:101B2E00F9747335F07558FFF559895A7557057B59
:101B3E003C7D027F30128302E56F540F75F024A4B2
:101B4E0024E7F9747135F07558FFF559895A7557B0
:101B5E00057B497D027F3D1283027557057558FF3F
:101B6E00755974755ADB7B567D027F4A128302E5E6
:101B7E006EC4540F75F024A424E7F9747135F07512
:101B8E0058FFF559895A7557057B637D027F5712A9
:101B9E008302E56E540F75F024A424E7F9747135B1
:101BAE00F07558FFF559895A7557057B707D027F80
:101BBE00641283022094277410256FF56F12869C91
:101BCE001288601288601288601288601288601213
:101BDE008860128860128860128860128860209770
:101BEE002774F0256FF56F12869C1288601288603C
:101BFE0012886012886012886012886012886012E3
:101C0E0088601288601288607557087558FF75597C
:101C1E0077755A9F7B107D06E4FF12830275570875
:101C2E007558FF755977755ABF7B217D067F111246
:101C3E0083027564017565107B027A00E4FDFF1264
:101C4E008212756401756510E4FBFAFD7F0812823D
:101C5E0012E574C4540FFB7A00756401756510E4C7
:101C6E00FD7F11128212E574540FFB7A0075640128
:101C7E00756510E4FD7F1A128212756C107B2FE4CD
:101C8E00FD7F23128076E572C4540FFB7A007564D3
:101C9E0001756510E4FD7F2C128212E572540FFB64
:101CAE007A00756401756510E4FD7F351282127538
:101CBE006C107B2FE4FD7F3E128076E571C4540FCD
:101CCE00FB7A00756401756510E4FD7F4712821280
:101CDE00E571540FFB7A00756401756510E4FD7FA4
:101CEE005012821202276AE570C4540F75F024A4B4
:101CFE0024E7F9747135F07558FFF559895A7557FF
:101D0E00057B157D027F09128302E570540F75F075
:101D1E0024A424E7F9747135F07558FFF559895AE2
:101D2E007557057B227D027F161283027557057546
:101D3E0058FF755974755ADB7B2F7D027F231283F2
:101D4E0002E56FC4540F75F024A424E7F9747135BD
:101D5E00F07558FFF559895A7557057B3C7D027F02
:101D6E0030128302E56F540F75F024A4244FF974DA
:101D7E007335F07558FFF559895A7557057B497DAE
:101D8E00027F3D1283027557057558FF755974759C
:101D9E005ADB7B567D027F4A128302E56EC4540FD6
:101DAE0075F024A424E7F9747135F07558FFF559D0
:101DBE00895A7557057B637D027F57128302E56E44
:101DCE00540F75F024A424E7F9747135F07558FF9B
:101DDE00F559895A7557057B707D027F641283020F
:101DEE00209423056F12869C1288601288601288D8
:101DFE006012886012886012886012886012886093
:101E0E00128860128860209723156F12869C1288A4
:101E1E006012886012886012886012886012886072
:101E2E001288601288601288601288607557087573
:101E3E0058FF755977755A9F7B107D06E4FF128304
:101E4E00027557087558FF755977755ABF7B217DF6
:101E5E00067F111283027564017565107B027A008C
:101E6E00E4FDFF128212756401756510E4FBFAFD44
:101E7E007F08128212E574C4540FFB7A0075640158
:101E8E00756510E4FD7F11128212E574540FFB7A12
:101E9E0000756401756510E4FD7F1A128212756C6F
:101EAE00107B2FE4FD7F23128076E572C4540FFB66
:101EBE007A00756401756510E4FD7F2C128212E5BF
:101ECE0072540FFB7A00756401756510E4FD7F3561
:101EDE00128212756C107B2FE4FD7F3E128076E528
:101EEE0071C4540FFB7A00756401756510E4FD7FB3
:101EFE0047128212E571540FFB7A00756401756505
:101F0E0010E4FD7F5012821202276AE570C4540F4E
:101F1E0075F024A424E7F9747135F07558FFF5595E
:101F2E00895A7557057B157D027F09128302E5706C
:101F3E00540F75F024A424E7F9747135F07558FF29
:101F4E00F559895A7557057B227D027F1612830239
:101F5E007557057558FF755974755ADB7B2F7D02C1
:101F6E007F23128302E56FC4540F75F024A424E777
:101F7E00F9747135F07558FFF559895A7557057B07
:101F8E003C7D027F30128302E56F540F75F024A45E
:101F9E0024E7F9747135F07558FFF559895A75575C
:101FAE00057B497D027F3D1283027557057558FFEB
:101FBE00755974755ADB7B567D027F4A128302E592
:101FCE006EC4540F75F024A4244FF9747335F07554
:101FDE0058FFF559895A7557057B637D027F571255
:101FEE008302E56E540F75F024A424E7F97471355D
:101FFE00F07558FFF559895A7557057B707D027F2C
:10200E00641283022094277410256EF56E12869C3E
:10201E0012886012886012886012886012886012BE
:10202E00886012886012886012886012886020971B
:10203E002774F0256EF56E12869C128860128860E9
:10204E00128860128860128860128860128860128E
:10205E0088601288601288607557087558FF755928
:10206E0077755A9F7B107D06E4FF12830275570821
:10207E007558FF755977755ABF7B217D067F1112F2
:10208E0083027564017565107B027A00E4FDFF1210
:10209E008212756401756510E4FBFAFD7F081282E9
:1020AE0012E574C4540FFB7A00756401756510E473
:1020BE00FD7F11128212E574540FFB7A00756401D4
:1020CE00756510E4FD7F1A128212756C107B2FE479
:1020DE00FD7F23128076E572C4540FFB7A0075647F
:1020EE0001756510E4FD7F2C128212E572540FFB10
:1020FE007A00756401756510E4FD7F3512821275E4
:10210E006C107B2FE4FD7F3E128076E571C4540F78
:10211E00FB7A00756401756510E4FD7F471282122B
:10212E00E571540FFB7A00756401756510E4FD7F4F
:10213E005012821202276AE570C4540F75F024A45F
:10214E0024E7F9747135F07558FFF559895A7557AA
:10215E00057B157D027F09128302E570540F75F021
:10216E0024A424E7F9747135F07558FFF559895A8E
:10217E007557057B227D027F1612830275570575F2
:10218E0058FF755974755ADB7B2F7D027F2312839E
:10219E0002E56FC4540F75F024A424E7F974713569
:1021AE00F07558FFF559895A7557057B3C7D027FAE
:1021BE0030128302E56F540F75F024A424E7F974EE
:1021CE007135F07558FFF559895A7557057B497D5C
:1021DE00027F3D1283027557057558FF7559747548
:1021EE005ADB7B567D027F4A128302E56EC4540F82
:1021FE0075F024A424E7F9747135F07558FFF5597C
:10220E00895A7557057B637D027F57128302E56EEF
:10221E00540F75F024A4244FF9747335F07558FFDC
:10222E00F559895A7557057B707D027F64128302BA
:10223E00209423056E12869C128860128860128884
:10224E00601288601288601288601288601288603E
:10225E00128860128860209723156E12869C128851
:10226E00601288601288601288601288601288601E
:10227E00128860128860128860128860755708751F
:10228E0058FF755977755A9F7B107D06E4FF1283B0
:10229E00027557087558FF755977755ABF7B217DA2
:1022AE00067F111283027564017565107B027A0038
:1022BE00E4FDFF128212756401756510E4FBFAFDF0
:1022CE007F08128212E574C4540FFB7A0075640104
:1022DE00756510E4FD7F11128212E574540FFB7ABE
:1022EE0000756401756510E4FD7F1A128212756C1B
:1022FE00107B2FE4FD7F23128076E572C4540FFB12
:10230E007A00756401756510E4FD7F2C128212E56A
:10231E0072540FFB7A00756401756510E4FD7F350C
:10232E00128212756C107B2FE4FD7F3E128076E5D3
:10233E0071C4540FFB7A00756401756510E4FD7F5E
:10234E0047128212E571540FFB7A007564017565B0
:10235E0010E4FD7F5012821202276AE570C4540FFA
:10236E0075F024A424E7F9747135F07558FFF5590A
:10237E00895A7557057B157D027F09128302E57018
:10238E00540F75F024A424E7F9747135F07558FFD5
:10239E00F559895A7557057B227D027F16128302E5
:1023AE007557057558FF755974755ADB7B2F7D026D
:1023BE007F23128302E56FC4540F75F024A424E723
:1023CE00F9747135F07558FFF559895A7557057BB3
:1023DE003C7D027F30128302E56F540F75F024A40A
:1023EE0024E7F9747135F07558FFF559895A755708
:1023FE00057B497D027F3D1283027557057558FF97
:10240E00755974755ADB7B567D027F4A128302E53D
:10241E006EC4540F75F024A424E7F9747135F07569
:10242E0058FFF559895A7557057B637D027F571200
:10243E008302E56E540F75F024A424E7F974713508
:10244E00F07558FFF559895A7557057B707D027FD7
:10245E0064128302209505E4F517F520755708756B
:10246E0058FF755978755A5F7B107D06E4FF12830D
:10247E00027557087558FF755978755A7F7B217DFF
:10248E00067F111283027564017565107B027A0056
:10249E00E4FDFF128212756401756510E4FBFAFD0E
:1024AE007F08128212E574C4540FFB7A0075640122
:1024BE00756510E4FD7F11128212E574540FFB7ADC
:1024CE0000756401756510E4FD7F1A128212756C39
:1024DE00107B2FE4FD7F23128076E572C4540FFB30
:1024EE007A00756401756510E4FD7F2C128212E589
:1024FE0072540FFB7A00756401756510E4FD7F352B
:10250E00128212756C107B2FE4FD7F3E128076E5F1
:10251E0071C4540FFB7A00756401756510E4FD7F7C
:10252E0047128212E571540FFB7A007564017565CE
:10253E0010E4FD7F5012821202276AE570C4540F18
:10254E0075F024A424E7F9747135F07558FFF55928
:10255E00895A7557057B157D027F09128302E57036
:10256E00540F75F024A424E7F9747135F07558FFF3
:10257E00F559895A7557057B227D027F1612830203
:10258E007557057558FF755974755ADB7B2F7D028B
:10259E007F23128302E56FC4540F75F024A424E741
:1025AE00F9747135F07558FFF559895A7557057BD1
:1025BE003C7D027F30128302E56F540F75F024A428
:1025CE0024E7F9747135F07558FFF559895A755726
:1025DE00057B497D027F3D1283027557057558FFB5
:1025EE00755974755ADB7B567D027F4A128302E55C
:1025FE006EC4540F75F024A424E7F9747135F07588
:10260E0058FFF559895A7557057B637D027F57121E
:10261E008302E56E540F75F024A424E7F974713526
:10262E00F07558FFF559895A7557057B707D027FF5
:10263E0064128302209423057312869C1288601202
:10264E008860128860128860128860128860128812
:10265E0060128860128860128860209723157312AA
:10266E00869C1288601288601288601288601288B8
:10267E00601288601288601288601288601288600A
:10268E007557087558FF755977755A9F7B107D06DB
:10269E00E4FF1283027557087558FF755977755AFE
:1026AE00BF7B217D067F1112830275640175651053
:1026BE007B027A00E4FDFF128212756401756510CB
:1026CE00E4FBFAFD7F08128212E574C4540FFB7A04
:1026DE0000756401756510E4FD7F11128212E574B8
:1026EE00540FFB7A00756401756510E4FD7F1A12B4
:1026FE008212756C107B2FE4FD7F23128076E572BB
:10270E00C4540FFB7A00756401756510E4FD7F2CCF
:10271E00128212E572540FFB7A0075640175651012
:10272E00E4FD7F35128212756C107B2FE4FD7F3E27
:10273E00128076E571C4540FFB7A007564017565DD
:10274E0010E4FD7F47128212E571540FFB7A00757B
:10275E006401756510E4FD7F50128212E573540713
:10276E0075F020A424FFF9747435F07558FFF559EF
:10277E00895A7557087B7F7D067F6F1283027557C6
:10278E00087558FF755974755AFF7B5D7D067F4D30
:10279E001283027557087558FF755975755AFF7B68
:1027AE006E7D067F5E128302020AB5E514B4010443
:1027BE00E5166010E514600302292DE5166402602B
:1027CE000302292DE5146403700302292DE5166416
:1027DE0003700302292DE5136405600302292D758C
:1027EE0057067558FF755976755ADF7B307D047F15
:1027FE00201283027557067558FF755976755AFF64
:10280E007B437D047F311283027557067558FF7521
:10281E005977755A1F7B557D047F44128302755775
:10282E00067558FF755977755A7F7B667D047F56FE
:10283E001283027557037558FF755976755A5F7B6B
:10284E00307D017F201283027557037558FF75592D
:10285E0076755A7F7B437D017F3112830275570354
:10286E007558FF755976755A9F7B557D017F4412B9
:10287E0083027557037558FF755976755ABF7B6677
:10288E007D017F561283027557087558FF7559786A
:10289E00755A5F7B107D06E4FF128302755708752B
:1028AE0058FF755978755A7F7B217D067F111283EB
:1028BE000220950375131E209420051412886012B1
:1028CE008860128860128860128860128860128890
:1028DE006012886012886012886020972005161298
:1028EE008860128860128860128860128860128870
:1028FE0060128860128860128860128860E513B4D6
:10290E000203751501E514D394034003E4F514E5B1
:10291E0016D3940350030227B9E4F5160227B9E53E
:10292E00147006E51664016010E51464026003027B
:10293E00071EE516600302071EE516640370030208
:10294E00071EE5146403700302071E7557067558BB
:10295E00FF755978755A9F7B307D047F2012830254
:10296E007557067558FF755978755ABF7B437D04A8
:10297E007F311283027557067558FF755978755A4F
:10298E00DF7B557D047F441283027557067558FF11
:10299E00755978755AFF7B667D047F5612830275D2
:1029AE0057037558FF755976755A5F7B307D017FD9
:1029BE00201283027557037558FF755976755A7F25
:1029CE007B437D017F311283027557037558FF7566
:1029DE005976755A9F7B557D017F44128302755738
:1029EE00037558FF755976755ABF7B667D017F5604
:1029FE001283027557087558FF755977755A9F7B64
:102A0E00107D06E4FF1283027557087558FF75593D
:102A1E0077755ABF7B217D067F1112830220952187
:102A2E00750E01128860128860128860128860121A
:102A3E00886012886012886012886012886012881E
:102A4E00602094200514128860128860128860122B
:102A5E0088601288601288601288601288601288FE
:102A6E006012886020972005161288601288601206
:102A7E0088601288601288601288601288601288DE
:102A8E0060128860128860E514D394034003E4F565
:102A9E0014E516D394034003E4F516E50EB40506CB
:102AAE00128725750E0AE50E6401600302292D12A8
:102ABE0087257557037558FF755971755AE77B153C
:102ACE00E4FD7F091283027557037558FF7559721D
:102ADE00755A0B7B22E4FD7F161283027557037520
:102AEE0058FF755971755AE77B3CE4FD7F301283B0
:102AFE00027557037558FF755972755A2F7B49E445
:102B0E00FD7F3D1283027557037558FF7559717518
:102B1E005AE77B63E4FD7F5712830275570375589E
:102B2E00FF755972755A537B70E4FD7F64128302F0
:102B3E00024C8BE50E6401600302292D20931D15B6
:102B4E0010C3E510648094805003751006128860DF
:102B5E0012886012886012886012886020961D05A7
:102B6E0010D3E510648094864003E4F5101288605B
:102B7E00128860128860128860128860E510B407AF
:102B8E000050B0902B98F8282873022BAD02369A7D
:102B9E00024191024CAF0257F1026353026EE87587
:102BAE0057037558FF755973755A4F7B15E4FD7FA2
:102BBE00091283027557037558FF755973755A7349
:102BCE007B22E4FD7F161283027557037558FF753D
:102BDE005971755AE77B3CE4FD7F301283027557BD
:102BEE00037558FF755972755A2F7B49E4FD7F3D69
:102BFE001283027557037558FF755971755AE77B25
:102C0E0063E4FD7F571283027557037558FF75599C
:102C1E0072755A537B70E4FD7F6412830220950314
:102C2E00750C01E50CB40506128725750C0AE50C2A
:102C3E0064016003023697128725E52CC4540F7584
:102C4E00F024A424E7F9747135F07558FFF559890D
:102C5E005A7557057B157D027F09128302E52C54A8
:102C6E000F75F024A424E7F9747135F07558FFF54B
:102C7E0059895A7557057B227D027F16128302757C
:102C8E0057057558FF755974755ADB7B2F7D027F7A
:102C9E0023128302E52BC4540F75F024A424E7F904
:102CAE00747135F07558FFF559895A7557057B3C87
:102CBE007D027F30128302E52B540F75F024A4247D
:102CCE00E7F9747135F07558FFF559895A7557053E
:102CDE007B497D027F3D1283027557057558FF753E
:102CEE005974755ADB7B567D027F4A128302E52AA0
:102CFE00C4540F75F024A424E7F9747135F0755897
:102D0E00FFF559895A7557057B637D027F571283EC
:102D1E0002E52A540F75F024A424E7F9747135F0F6
:102D2E007558FFF559895A7557057B707D027F647A
:102D3E00128302023547E50C6401600302369720C8
:102D4E00931D150DC3E50D648094805003750D061B
:102D5E001288601288601288601288601288602063
:102D6E00961D050DD3E50D648094864003E4F50DA4
:102D7E00128860128860128860128860128860E57E
:102D8E000DB4070050B0902D9BF8282873022DB07B
:102D9E00022EF002303202317C0232BE02340802C0
:102DAE00356BE52CC4540F75F024A4244FF97473BD
:102DBE0035F07558FFF559895A7557057B157D0203
:102DCE007F09128302E52C540F75F024A424E7F931
:102DDE00747135F07558FFF559895A7557057B2270
:102DEE007D027F161283027557057558FF7559744B
:102DFE00755ADB7B2F7D027F23128302E52BC45491
:102E0E000F75F024A424E7F9747135F07558FFF5A9
:102E1E0059895A7557057B3C7D027F30128302E536
:102E2E002B540F75F024A424E7F9747135F07558FE
:102E3E00FFF559895A7557057B497D027F3D1283EF
:102E4E00027557057558FF755974755ADB7B567D9B
:102E5E00027F4A128302E52AC4540F75F024A4247B
:102E6E00E7F9747135F07558FFF559895A7557059C
:102E7E007B637D027F57128302E52A540F75F0247F
:102E8E00A424E7F9747135F07558FFF559895A7510
:102E9E0057057B707D027F6412830220941E128878
:102EAE005A128860128860128860128860128860D8
:102EBE0012886012886012886012886020972074D1
:102ECE00F012885C12886012886012886012886026
:102EDE001288601288601288601288601288600200
:102EEE003547E52CC4540F75F024A424E7F974710A
:102EFE0035F07558FFF559895A7557057B157D02C2
:102F0E007F09128302E52C540F75F024A4244FF987
:102F1E00747335F07558FFF559895A7557057B222C
:102F2E007D027F161283027557057558FF75597409
:102F3E00755ADB7B2F7D027F23128302E52BC4544F
:102F4E000F75F024A424E7F9747135F07558FFF568
:102F5E0059895A7557057B3C7D027F30128302E5F5
:102F6E002B540F75F024A424E7F9747135F07558BD
:102F7E00FFF559895A7557057B497D027F3D1283AE
:102F8E00027557057558FF755974755ADB7B567D5A
:102F9E00027F4A128302E52AC4540F75F024A4243A
:102FAE00E7F9747135F07558FFF559895A7557055B
:102FBE007B637D027F57128302E52A540F75F0243E
:102FCE00A424E7F9747135F07558FFF559895A75CF
:102FDE0057057B707D027F64128302209420052C9E
:102FEE0012886012886012886012886012886012DF
:102FFE00886012886012886012886012886020973C
:10300E0020152C1288601288601288601288601257
:10301E008860128860128860128860128860128838
:10302E0060023547E52CC4540F75F024A424E7F94B
:10303E00747135F07558FFF559895A7557057B151A
:10304E007D027F09128302E52C540F75F024A4240F
:10305E00E7F9747135F07558FFF559895A755705AA
:10306E007B227D027F161283027557057558FF75F8
:10307E005974755ADB7B2F7D027F23128302E52B59
:10308E00C4540F75F024A4244FF9747335F0755899
:10309E00FFF559895A7557057B3C7D027F301283A7
:1030AE0002E52B540F75F024A424E7F9747135F062
:1030BE007558FFF559895A7557057B497D027F3D35
:1030CE001283027557057558FF755974755ADB7B57
:1030DE00567D027F4A128302E52AC4540F75F024EE
:1030EE00A424E7F9747135F07558FFF559895A75AE
:1030FE0057057B637D027F57128302E52A540F75B5
:10310E00F024A424E7F9747135F07558FFF5598948
:10311E005A7557057B707D027F64128302209424BA
:10312E007410252BF52B128860128860128860129D
:10313E008860128860128860128860128860128817
:10314E006012886020972474F0252BF52B1288606E
:10315E00128860128860128860128860128860126D
:10316E008860128860128860128860023547E52CEC
:10317E00C4540F75F024A424E7F9747135F0755812
:10318E00FFF559895A7557057B157D027F09128304
:10319E0002E52C540F75F024A424E7F9747135F070
:1031AE007558FFF559895A7557057B227D027F1692
:1031BE001283027557057558FF755974755ADB7B66
:1031CE002F7D027F23128302E52BC4540F75F0244A
:1031DE00A424E7F9747135F07558FFF559895A75BD
:1031EE0057057B3C7D027F30128302E52B540F7511
:1031FE00F024A4244FF9747335F07558FFF55989EE
:10320E005A7557057B497D027F3D1283027557051E
:10321E007558FF755974755ADB7B567D027F4A12BD
:10322E008302E52AC4540F75F024A424E7F97471BF
:10323E0035F07558FFF559895A7557057B637D0230
:10324E007F57128302E52A540F75F024A424E7F960
:10325E00747135F07558FFF559895A7557057B709D
:10326E007D027F64128302209420052B1288601247
:10327E0088601288601288601288601288601288D6
:10328E0060128860128860128860209720152B12B9
:10329E0088601288601288601288601288601288B6
:1032AE00601288601288601288601288600235474A
:1032BE00E52CC4540F75F024A424E7F9747135F08D
:1032CE007558FFF559895A7557057B157D027F098B
:1032DE00128302E52C540F75F024A424E7F97471BF
:1032EE0035F07558FFF559895A7557057B227D02C1
:1032FE007F161283027557057558FF755974755AE6
:10330E00DB7B2F7D027F23128302E52BC4540F75C6
:10331E00F024A424E7F9747135F07558FFF5598936
:10332E005A7557057B3C7D027F30128302E52B5484
:10333E000F75F024A424E7F9747135F07558FFF574
:10334E0059895A7557057B497D027F3D1283027557
:10335E0057057558FF755974755ADB7B567D027F7C
:10336E004A128302E52AC4540F75F024A4244FF99F
:10337E00747335F07558FFF559895A7557057B6387
:10338E007D027F57128302E52A540F75F024A42480
:10339E00E7F9747135F07558FFF559895A75570567
:1033AE007B707D027F641283022094247410252A80
:1033BE00F52A12886012886012886012886012885E
:1033CE0060128860128860128860128860128860AD
:1033DE0020972474F0252AF52A128860128860122C
:1033EE008860128860128860128860128860128865
:1033FE0060128860128860023547E52CC4540F7540
:10340E00F024A424E7F9747135F07558FFF5598945
:10341E005A7557057B157D027F09128302E52C54E0
:10342E000F75F024A424E7F9747135F07558FFF583
:10343E0059895A7557057B227D027F1612830275B4
:10344E0057057558FF755974755ADB7B2F7D027FB2
:10345E0023128302E52BC4540F75F024A424E7F93C
:10346E00747135F07558FFF559895A7557057B3CBF
:10347E007D027F30128302E52B540F75F024A424B5
:10348E00E7F9747135F07558FFF559895A75570576
:10349E007B497D027F3D1283027557057558FF7576
:1034AE005974755ADB7B567D027F4A128302E52AD8
:1034BE00C4540F75F024A424E7F9747135F07558CF
:1034CE00FFF559895A7557057B637D027F57128325
:1034DE0002E52A540F75F024A4244FF9747335F0C5
:1034EE007558FFF559895A7557057B707D027F64B3
:1034FE00128302209420052A128860128860128896
:10350E00601288601288601288601288601288606B
:10351E00128860128860209720152A1288601288FF
:10352E00601288601288601288601288601288604B
:10353E001288601288601288607557087558FF757A
:10354E005977755A9F7B107D06E4FF1283027557DB
:10355E00087558FF755977755ABF02368BE52CC41E
:10356E00540F75F024A424E7F9747135F07558FFE3
:10357E00F559895A7557057B157D027F091283020D
:10358E00E52C540F75F024A424E7F9747135F07509
:10359E0058FFF559895A7557057B227D027F161201
:1035AE0083027557057558FF755974755ADB7B2F55
:1035BE007D027F23128302E52BC4540F75F024A4E1
:1035CE0024E7F9747135F07558FFF559895A755716
:1035DE00057B3C7D027F30128302E52B540F75F084
:1035EE0024A424E7F9747135F07558FFF559895AFA
:1035FE007557057B497D027F3D1283027557057510
:10360E0058FF755974755ADB7B567D027F4A1283BB
:10361E0002E52AC4540F75F024A424E7F974713519
:10362E00F07558FFF559895A7557057B637D027FF2
:10363E0057128302E52A540F75F024A424E7F97477
:10364E007135F07558FFF559895A7557057B707DA0
:10365E00027F64128302209503750C057557087559
:10366E0058FF755978755A5F7B107D06E4FF1283FB
:10367E00027557087558FF755978755A7F7B217DED
:10368E00067F11128302022D44024C8B755703756F
:10369E0058FF755971755AE77B15E4FD7F09128342
:1036AE00027557037558FF755972755A0B7B22E4D4
:1036BE00FD7F161283027557037558FF7559737582
:1036CE005A4F7B3CE4FD7F301283027557037558C9
:1036DE00FF755973755A977B49E4FD7F3D1283023E
:1036EE007557037558FF755971755AE77B63E4FD7D
:1036FE007F571283027557037558FF755972755AA5
:10370E00537B70E4FD7F64128302209503750C01D8
:10371E00E50CB40506128725750C0AE50C640160EC
:10372E000302418E128725E533C4540F75F024A48D
:10373E0024E7F9747135F07558FFF559895A7557A4
:10374E00057B157D027F09128302E533540F75F058
:10375E0024A424E7F9747135F07558FFF559895A88
:10376E007557057B227D027F1612830275570575EC
:10377E0058FF755974755ADB7B2F7D027F23128398
:10378E0002E532C4540F75F024A424E7F9747135A0
:10379E00F07558FFF559895A7557057B3C7D027FA8
:1037AE0030128302E532540F75F024A424E7F97425
:1037BE007135F07558FFF559895A7557057B497D56
:1037CE00027F3D1283027557057558FF7559747542
:1037DE005ADB7B567D027F4A128302E531C4540FB9
:1037EE0075F024A424E7F9747135F07558FFF55976
:1037FE00895A7557057B637D027F57128302E53127
:10380E00540F75F024A424E7F9747135F07558FF40
:10381E00F559895A7557057B707D027F64128302B4
:10382E0002403EE50C6401600302418E20931D159B
:10383E000DC3E50D648094805003750D06128860EB
:10384E0012886012886012886012886020961D05AA
:10385E000DD3E50D648094864003E4F50D12886067
:10386E00128860128860128860128860E50DB407B5
:10387E000050B0903888F828287302389D0239E736
:10388E00023B29023C73023DB5023EFF024062E557
:10389E0033C4540F75F024A4244FF9747335F075A6
:1038AE0058FFF559895A7557057B157D027F091208
:1038BE008302E533540F75F024A424E7F9747135AF
:1038CE00F07558FFF559895A7557057B227D027F91
:1038DE00161283027557057558FF755974755ADBA4
:1038EE007B2F7D027F23128302E532C4540F75F0C5
:1038FE0024A424E7F9747135F07558FFF559895AE7
:10390E007557057B3C7D027F30128302E532540FE2
:10391E0075F024A424E7F9747135F07558FFF55944
:10392E00895A7557057B497D027F3D128302755773
:10393E00057558FF755974755ADB7B567D027F4AA3
:10394E00128302E531C4540F75F024A424E7F974F0
:10395E007135F07558FFF559895A7557057B637D9A
:10396E00027F57128302E531540F75F024A424E729
:10397E00F9747135F07558FFF559895A7557057BED
:10398E00707D027F6412830220942474102533F517
:10399E003312886012886012886012886012886004
:1039AE001288601288601288601288601288602007
:1039BE00972474F02533F5331288601288601288CC
:1039CE0060128860128860128860128860128860A7
:1039DE0012886012886002403EE533C4540F75F0C1
:1039EE0024A424E7F9747135F07558FFF559895AF6
:1039FE007557057B157D027F09128302E533540F3F
:103A0E0075F024A4244FF9747335F07558FFF559E9
:103A1E00895A7557057B227D027F161283027557D0
:103A2E00057558FF755974755ADB7B2F7D027F2300
:103A3E00128302E532C4540F75F024A424E7F974FE
:103A4E007135F07558FFF559895A7557057B3C7DD0
:103A5E00027F30128302E532540F75F024A424E75E
:103A6E00F9747135F07558FFF559895A7557057BFC
:103A7E00497D027F3D1283027557057558FF7559B2
:103A8E0074755ADB7B567D027F4A128302E531C480
:103A9E00540F75F024A424E7F9747135F07558FFAE
:103AAE00F559895A7557057B637D027F571283023C
:103ABE00E531540F75F024A424E7F9747135F075CF
:103ACE0058FFF559895A7557057B707D027F641230
:103ADE008302209420053312886012886012886059
:103AEE0012886012886012886012886012886012D4
:103AFE0088601288602097201533128860128860C3
:103B0E0012886012886012886012886012886012B3
:103B1E00886012886012886002403EE533C4540FFC
:103B2E0075F024A424E7F9747135F07558FFF55932
:103B3E00895A7557057B157D027F09128302E5337D
:103B4E00540F75F024A424E7F9747135F07558FFFD
:103B5E00F559895A7557057B227D027F161283020D
:103B6E007557057558FF755974755ADB7B2F7D0295
:103B7E007F23128302E532C4540F75F024A4244F20
:103B8E00F9747335F07558FFF559895A7557057BD9
:103B9E003C7D027F30128302E532540F75F024A46F
:103BAE0024E7F9747135F07558FFF559895A755730
:103BBE00057B497D027F3D1283027557057558FFBF
:103BCE00755974755ADB7B567D027F4A128302E566
:103BDE0031C4540F75F024A424E7F9747135F075CF
:103BEE0058FFF559895A7557057B637D027F571229
:103BFE008302E531540F75F024A424E7F97471356E
:103C0E00F07558FFF559895A7557057B707D027FFF
:103C1E006412830220942474102532F532128860C7
:103C2E001288601288601288601288601288601292
:103C3E00886012886012886012886020972474F061
:103C4E002532F53212886012886012886012886000
:103C5E001288601288601288601288601288601262
:103C6E00886002403EE533C4540F75F024A424E767
:103C7E00F9747135F07558FFF559895A7557057BEA
:103C8E00157D027F09128302E533540F75F024A4CB
:103C9E0024E7F9747135F07558FFF559895A75573F
:103CAE00057B227D027F161283027557057558FF1C
:103CBE00755974755ADB7B2F7D027F23128302E5C3
:103CCE0032C4540F75F024A424E7F9747135F075DD
:103CDE0058FFF559895A7557057B3C7D027F301286
:103CEE008302E532540F75F024A4244FF974733512
:103CFE00F07558FFF559895A7557057B497D027F36
:103D0E003D1283027557057558FF755974755ADB48
:103D1E007B567D027F4A128302E531C4540F75F043
:103D2E0024A424E7F9747135F07558FFF559895AB2
:103D3E007557057B637D027F57128302E531540F61
:103D4E0075F024A424E7F9747135F07558FFF55910
:103D5E00895A7557057B707D027F64128302209409
:103D6E0020053212886012886012886012886012F4
:103D7E0088601288601288601288601288601288CB
:103D8E0060209720153212886012886012886012A7
:103D9E0088601288601288601288601288601288AB
:103DAE006012886002403EE533C4540F75F024A4BF
:103DBE0024E7F9747135F07558FFF559895A75571E
:103DCE00057B157D027F09128302E533540F75F0D2
:103DDE0024A424E7F9747135F07558FFF559895A02
:103DEE007557057B227D027F161283027557057566
:103DFE0058FF755974755ADB7B2F7D027F23128312
:103E0E0002E532C4540F75F024A424E7F974713519
:103E1E00F07558FFF559895A7557057B3C7D027F21
:103E2E0030128302E532540F75F024A424E7F9749E
:103E3E007135F07558FFF559895A7557057B497DCF
:103E4E00027F3D1283027557057558FF75597475BB
:103E5E005ADB7B567D027F4A128302E531C4540F32
:103E6E0075F024A4244FF9747335F07558FFF55985
:103E7E00895A7557057B637D027F57128302E531A0
:103E8E00540F75F024A424E7F9747135F07558FFBA
:103E9E00F559895A7557057B707D027F641283022E
:103EAE0020942474102531F5311288601288601226
:103EBE00886012886012886012886012886012888A
:103ECE006012886012886020972474F02531F531D5
:103EDE0012886012886012886012886012886012E0
:103EEE0088601288601288601288601288600240B2
:103EFE003EE533C4540F75F024A424E7F9747135EC
:103F0E00F07558FFF559895A7557057B157D027F57
:103F1E0009128302E533540F75F024A424E7F974D3
:103F2E007135F07558FFF559895A7557057B227D05
:103F3E00027F161283027557057558FF75597475F1
:103F4E005ADB7B2F7D027F23128302E532C4540F8E
:103F5E0075F024A424E7F9747135F07558FFF559FE
:103F6E00895A7557057B3C7D027F30128302E532FC
:103F7E00540F75F024A424E7F9747135F07558FFC9
:103F8E00F559895A7557057B497D027F3D1283028B
:103F9E007557057558FF755974755ADB7B567D023A
:103FAE007F4A128302E531C4540F75F024A424E72E
:103FBE00F9747135F07558FFF559895A7557057BA7
:103FCE00637D027F57128302E531540F75F024A4EE
:103FDE00244FF9747335F07558FFF559895A755792
:103FEE00057B707D027F64128302209420053112BE
:103FFE008860128860128860128860128860128849
:10400E006012886012886012886012886020972083
:10401E0015311288601288601288601288601288CA
:10402E006012886012886012886012886012886040
:10403E007557087558FF755977755A9F7B107D0611
:10404E00E4FF1283027557087558FF755977755A34
:10405E00BF024182E533C4540F75F024A424E7F95E
:10406E00747135F07558FFF559895A7557057B15DA
:10407E007D027F09128302E533540F75F024A424C8
:10408E00E7F9747135F07558FFF559895A7557056A
:10409E007B227D027F161283027557057558FF75B8
:1040AE005974755ADB7B2F7D027F23128302E53212
:1040BE00C4540F75F024A424E7F9747135F07558C3
:1040CE00FFF559895A7557057B3C7D027F30128367
:1040DE0002E532540F75F024A424E7F9747135F01B
:1040EE007558FFF559895A7557057B497D027F3DF5
:1040FE001283027557057558FF755974755ADB7B17
:10410E00567D027F4A128302E531C4540F75F024A6
:10411E00A424E7F9747135F07558FFF559895A756D
:10412E0057057B637D027F57128302E531540F756D
:10413E00F024A424E7F9747135F07558FFF5598908
:10414E005A7557057B707D027F641283022095039A
:10415E00750C057557087558FF755978755A5F7B3C
:10416E00107D06E4FF1283027557087558FF7559C6
:10417E0078755A7F7B217D067F11128302023831BA
:10418E00024C8B7557037558FF755971755AE77B3D
:10419E0015E4FD7F091283027557037558FF755993
:1041AE0072755A0B7B22E4FD7F161283027557033C
:1041BE007558FF755971755AE77B3CE4FD7F3012D7
:1041CE0083027557037558FF755972755A2F7B49BF
:1041DE00E4FD7F3D1283027557037558FF755973C1
:1041EE00755A4F7B63E4FD7F571283027557037533
:1041FE0058FF755973755ABB7B70E4FD7F6412834B
:10420E0002209503750C01E50CB405061287257581
:10421E000C0AE50C64016003024C8B128725E53A0B
:10422E00C4540F75F024A424E7F9747135F0755851
:10423E00FFF559895A7557057B157D027F09128343
:10424E0002E53A540F75F024A424E7F9747135F0A1
:10425E007558FFF559895A7557057B227D027F16D1
:10426E001283027557057558FF755974755ADB7BA5
:10427E002F7D027F23128302E539C4540F75F0247B
:10428E00A424E7F9747135F07558FFF559895A75FC
:10429E0057057B3C7D027F30128302E539540F7542
:1042AE00F024A424E7F9747135F07558FFF5598997
:1042BE005A7557057B497D027F3D1283027557055E
:1042CE007558FF755974755ADB7B567D027F4A12FD
:1042DE008302E538C4540F75F024A424E7F97471F1
:1042EE0035F07558FFF559895A7557057B637D0270
:1042FE007F57128302E538540F75F024A424E7F992
:10430E00747135F07558FFF559895A7557057B70DC
:10431E007D027F64128302024B3BE50C6401600355
:10432E00024C8B20931D150DC3E50D6480948050B7
:10433E0003750D06128860128860128860128860FC
:10434E0012886020961D050DD3E50D64809486407D
:10435E0003E4F50D1288601288601288601288607E
:10436E00128860E50DB4070050B090437FF82828FE
:10437E00730243940244DE0246260247700248B29C
:10438E000249FC024B5FE53AC4540F75F024A42495
:10439E004FF9747335F07558FFF559895A755705ED
:1043AE007B157D027F09128302E53A540F75F024C6
:1043BE00A424E7F9747135F07558FFF559895A75CB
:1043CE0057057B227D027F1612830275570575589D
:1043DE00FF755974755ADB7B2F7D027F2312830282
:1043EE00E539C4540F75F024A424E7F9747135F03F
:1043FE007558FFF559895A7557057B3C7D027F30FC
:10440E00128302E539540F75F024A424E7F9747170
:10441E0035F07558FFF559895A7557057B497D0258
:10442E007F3D1283027557057558FF755974755A7D
:10443E00DB7B567D027F4A128302E538C4540F752A
:10444E00F024A424E7F9747135F07558FFF55989F5
:10445E005A7557057B637D027F57128302E53854E8
:10446E000F75F024A424E7F9747135F07558FFF533
:10447E0059895A7557057B707D027F64128302201D
:10448E0094247410253AF53A1288601288601288C6
:10449E0060128860128860128860128860128860CC
:1044AE0012886012886020972474F0253AF53A122B
:1044BE008860128860128860128860128860128884
:1044CE0060128860128860128860128860024B3B0E
:1044DE00E53AC4540F75F024A424E7F9747135F04D
:1044EE007558FFF559895A7557057B157D027F0959
:1044FE00128302E53A540F75F024A4244FF9747315
:10450E0035F07558FFF559895A7557057B227D028E
:10451E007F161283027557057558FF755974755AB3
:10452E00DB7B2F7D027F23128302E539C4540F7586
:10453E00F024A424E7F9747135F07558FFF5598904
:10454E005A7557057B3C7D027F30128302E5395444
:10455E000F75F024A424E7F9747135F07558FFF542
:10456E0059895A7557057B497D027F3D1283027525
:10457E0057057558FF755974755ADB7B567D027F4A
:10458E004A128302E538C4540F75F024A424E7F9C7
:10459E00747135F07558FFF559895A7557057B6357
:1045AE007D027F57128302E538540F75F024A42440
:1045BE00E7F9747135F07558FFF559895A75570535
:1045CE007B707D027F64128302209423E52C04F518
:1045DE003A128860128860128860128860128860B1
:1045EE0012886012886012886012886012886020BB
:1045FE009723E52C14F53A128860128860128860B1
:10460E0012886012886012886012886012886012A8
:10461E008860128860024B3BE53AC4540F75F02453
:10462E00A424E7F9747135F07558FFF559895A7558
:10463E0057057B157D027F09128302E53A540F75EB
:10464E00F024A424E7F9747135F07558FFF55989F3
:10465E005A7557057B227D027F1612830275570508
:10466E007558FF755974755ADB7B2F7D027F2312A7
:10467E008302E539C4540F75F024A4244FF97473E2
:10468E0035F07558FFF559895A7557057B3C7D02F3
:10469E007F30128302E539540F75F024A424E7F914
:1046AE00747135F07558FFF559895A7557057B4960
:1046BE007D027F3D1283027557057558FF7559743B
:1046CE00755ADB7B567D027F4A128302E538C4544D
:1046DE000F75F024A424E7F9747135F07558FFF5C1
:1046EE0059895A7557057B637D027F57128302E500
:1046FE0038540F75F024A424E7F9747135F0755809
:10470E00FFF559895A7557057B707D027F641283B8
:10471E000220942474102539F539128860128860AD
:10472E001288601288601288601288601288601287
:10473E00886012886012886020972474F02539F5FD
:10474E003912886012886012886012886012886040
:10475E001288601288601288601288601288600267
:10476E004B3BE53AC4540F75F024A424E7F9747159
:10477E0035F07558FFF559895A7557057B157D0229
:10478E007F09128302E53A540F75F024A424E7F949
:10479E00747135F07558FFF559895A7557057B2296
:1047AE007D027F161283027557057558FF75597471
:1047BE00755ADB7B2F7D027F23128302E539C454A9
:1047CE000F75F024A424E7F9747135F07558FFF5D0
:1047DE0059895A7557057B3C7D027F30128302E55D
:1047EE0039540F75F024A4244FF9747335F07558AD
:1047FE00FFF559895A7557057B497D027F3D128316
:10480E00027557057558FF755974755ADB7B567DC1
:10481E00027F4A128302E538C4540F75F024A42493
:10482E00E7F9747135F07558FFF559895A755705C2
:10483E007B637D027F57128302E538540F75F02497
:10484E00A424E7F9747135F07558FFF559895A7536
:10485E0057057B707D027F641283022094200539F8
:10486E001288601288601288601288601288601246
:10487E0088601288601288601288601288602097A3
:10488E0020153912886012886012886012886012B2
:10489E0088601288601288601288601288601288A0
:1048AE0060024B3BE53AC4540F75F024A424E7F99B
:1048BE00747135F07558FFF559895A7557057B1582
:1048CE007D027F09128302E53A540F75F024A42469
:1048DE00E7F9747135F07558FFF559895A75570512
:1048EE007B227D027F161283027557057558FF7560
:1048FE005974755ADB7B2F7D027F23128302E539B3
:10490E00C4540F75F024A424E7F9747135F075586A
:10491E00FFF559895A7557057B3C7D027F3012830E
:10492E0002E539540F75F024A424E7F9747135F0BB
:10493E007558FFF559895A7557057B497D027F3D9C
:10494E001283027557057558FF755974755ADB7BBE
:10495E00567D027F4A128302E538C4540F75F02447
:10496E00A4244FF9747335F07558FFF559895A75AB
:10497E0057057B637D027F57128302E538540F750E
:10498E00F024A424E7F9747135F07558FFF55989B0
:10499E005A7557057B707D027F6412830220942422
:1049AE0074102538F53812886012886012886012EB
:1049BE00886012886012886012886012886012887F
:1049CE006012886020972474F02538F538128860BC
:1049DE0012886012886012886012886012886012D5
:1049EE008860128860128860128860024B3BE53A3C
:1049FE00C4540F75F024A424E7F9747135F075587A
:104A0E00FFF559895A7557057B157D027F0912836B
:104A1E0002E53A540F75F024A424E7F9747135F0C9
:104A2E007558FFF559895A7557057B227D027F16F9
:104A3E001283027557057558FF755974755ADB7BCD
:104A4E002F7D027F23128302E539C4540F75F024A3
:104A5E00A424E7F9747135F07558FFF559895A7524
:104A6E0057057B3C7D027F30128302E539540F756A
:104A7E00F024A424E7F9747135F07558FFF55989BF
:104A8E005A7557057B497D027F3D12830275570586
:104A9E007558FF755974755ADB7B567D027F4A1225
:104AAE008302E538C4540F75F024A424E7F9747119
:104ABE0035F07558FFF559895A7557057B637D0298
:104ACE007F57128302E538540F75F024A4244FF952
:104ADE00747335F07558FFF559895A7557057B7003
:104AEE007D027F64128302209420053812886012A2
:104AFE00886012886012886012886012886012883E
:104B0E006012886012886012886020972015381213
:104B1E00886012886012886012886012886012881D
:104B2E00601288601288601288601288607557085B
:104B3E007558FF755977755A9F7B107D06E4FF12E5
:104B4E0083027557087558FF755977755ABF024C11
:104B5E007FE53AC4540F75F024A424E7F974713537
:104B6E00F07558FFF559895A7557057B157D027FEB
:104B7E0009128302E53A540F75F024A424E7F97460
:104B8E007135F07558FFF559895A7557057B227D99
:104B9E00027F161283027557057558FF7559747585
:104BAE005ADB7B2F7D027F23128302E539C4540F1B
:104BBE0075F024A424E7F9747135F07558FFF55992
:104BCE00895A7557057B3C7D027F30128302E53989
:104BDE00540F75F024A424E7F9747135F07558FF5D
:104BEE00F559895A7557057B497D027F3D1283021F
:104BFE007557057558FF755974755ADB7B567D02CE
:104C0E007F4A128302E538C4540F75F024A424E7BA
:104C1E00F9747135F07558FFF559895A7557057B3A
:104C2E00637D027F57128302E538540F75F024A47A
:104C3E0024E7F9747135F07558FFF559895A75578F
:104C4E00057B707D027F64128302209503750C052F
:104C5E007557087558FF755978755A5F7B107D0624
:104C6E00E4FF1283027557087558FF755978755A07
:104C7E007F7B217D067F1112830202432875570622
:104C8E007558FF755971755AE77B157D037F0912AB
:104C9E0083027557067558FF755972755A77025704
:104CAE00C47557037558FF755971755AE77B15E42E
:104CBE00FD7F091283027557037558FF755972757A
:104CCE005A0B7B22E4FD7F1612830275570375582B
:104CDE00FF755971755AE77B3CE4FD7F30128302F4
:104CEE007557037558FF755972755A2F7B49E4FD38
:104CFE007F3D1283027557037558FF755971755AAA
:104D0E00E77B63E4FD7F571283027557037558FFE7
:104D1E00755972755A537B70E4FD7F6412830220BD
:104D2E009503750C01E50CB40506128725750C0A62
:104D3E00E50C640160030257A3128725E541C454B4
:104D4E000F75F024A424E7F9747135F07558FFF54A
:104D5E0059895A7557057B157D027F09128302E525
:104D6E0041540F75F024A424E7F9747135F0755889
:104D7E00FFF559895A7557057B227D027F161283DE
:104D8E00027557057558FF755974755ADB7B2F7D63
:104D9E00027F23128302E540C4540F75F024A4242D
:104DAE00E7F9747135F07558FFF559895A7557053D
:104DBE007B3C7D027F30128302E540540F75F02458
:104DCE00A424E7F9747135F07558FFF559895A75B1
:104DDE0057057B497D027F3D128302755705755835
:104DEE00FF755974755ADB7B567D027F4A1283021A
:104DFE00E53FC4540F75F024A424E7F9747135F01F
:104E0E007558FFF559895A7557057B637D027F5793
:104E1E00128302E53F540F75F024A424E7F9747150
:104E2E0035F07558FFF559895A7557057B707D0217
:104E3E007F64128302025653E50C6401600302572D
:104E4E00A320931D150DC3E50D648094805003754A
:104E5E000D061288601288601288601288601288AF
:104E6E006020961D050DD3E50D648094864003E405
:104E7E00F50D1288601288601288601288601288A0
:104E8E0060E50DB4070050B0904E9DF828287302CF
:104E9E004EB2024FFC02513E0252880253CA0255D4
:104EAE0014025677E541C4540F75F024A4244FF92B
:104EBE00747335F07558FFF559895A7557057B157A
:104ECE007D027F09128302E541540F75F024A4245C
:104EDE00E7F9747135F07558FFF559895A7557050C
:104EEE007B227D027F161283027557057558FF755A
:104EFE005974755ADB7B2F7D027F23128302E540A6
:104F0E00C4540F75F024A424E7F9747135F0755864
:104F1E00FFF559895A7557057B3C7D027F30128308
:104F2E0002E540540F75F024A424E7F9747135F0AE
:104F3E007558FFF559895A7557057B497D027F3D96
:104F4E001283027557057558FF755974755ADB7BB8
:104F5E00567D027F4A128302E53FC4540F75F0243A
:104F6E00A424E7F9747135F07558FFF559895A750F
:104F7E0057057B637D027F57128302E53F540F7501
:104F8E00F024A424E7F9747135F07558FFF55989AA
:104F9E005A7557057B707D027F641283022094241C
:104FAE0074102541F54112886012886012886012D3
:104FBE008860128860128860128860128860128879
:104FCE006012886020972474F02541F541128860A4
:104FDE0012886012886012886012886012886012CF
:104FEE008860128860128860128860025653E5410C
:104FFE00C4540F75F024A424E7F9747135F0755874
:10500E00FFF559895A7557057B157D027F09128365
:10501E0002E541540F75F024A4244FF9747335F052
:10502E007558FFF559895A7557057B227D027F16F3
:10503E001283027557057558FF755974755ADB7BC7
:10504E002F7D027F23128302E540C4540F75F02496
:10505E00A424E7F9747135F07558FFF559895A751E
:10506E0057057B3C7D027F30128302E540540F755D
:10507E00F024A424E7F9747135F07558FFF55989B9
:10508E005A7557057B497D027F3D12830275570580
:10509E007558FF755974755ADB7B567D027F4A121F
:1050AE008302E53FC4540F75F024A424E7F974710C
:1050BE0035F07558FFF559895A7557057B637D0292
:1050CE007F57128302E53F540F75F024A424E7F9AD
:1050DE00747135F07558FFF559895A7557057B70FF
:1050EE007D027F6412830220942005411288601293
:1050FE008860128860128860128860128860128838
:10510E006012886012886012886020972015411204
:10511E008860128860128860128860128860128817
:10512E00601288601288601288601288600256537E
:10513E00E541C4540F75F024A424E7F9747135F0D9
:10514E007558FFF559895A7557057B157D027F09EC
:10515E00128302E541540F75F024A424E7F974710B
:10516E0035F07558FFF559895A7557057B227D0222
:10517E007F161283027557057558FF755974755A47
:10518E00DB7B2F7D027F23128302E540C4540F7513
:10519E00F024A4244FF9747335F07558FFF559892E
:1051AE005A7557057B3C7D027F30128302E54054D1
:1051BE000F75F024A424E7F9747135F07558FFF5D6
:1051CE0059895A7557057B497D027F3D12830275B9
:1051DE0057057558FF755974755ADB7B567D027FDE
:1051EE004A128302E53FC4540F75F024A424E7F954
:1051FE00747135F07558FFF559895A7557057B63EB
:10520E007D027F57128302E53F540F75F024A424CC
:10521E00E7F9747135F07558FFF559895A755705C8
:10522E007B707D027F6412830220942474102540CB
:10523E00F5401288601288601288601288601288A9
:10524E00601288601288601288601288601288600E
:10525E0020972474F02540F5401288601288601261
:10526E0088601288601288601288601288601288C6
:10527E0060128860128860025653E541C4540F755F
:10528E00F024A424E7F9747135F07558FFF55989A7
:10529E005A7557057B157D027F09128302E541542D
:1052AE000F75F024A424E7F9747135F07558FFF5E5
:1052BE0059895A7557057B227D027F161283027516
:1052CE0057057558FF755974755ADB7B2F7D027F14
:1052DE0023128302E540C4540F75F024A424E7F989
:1052EE00747135F07558FFF559895A7557057B3C21
:1052FE007D027F30128302E540540F75F024A42402
:10530E004FF9747335F07558FFF559895A7557056D
:10531E007B497D027F3D1283027557057558FF75D7
:10532E005974755ADB7B567D027F4A128302E53F24
:10533E00C4540F75F024A424E7F9747135F0755830
:10534E00FFF559895A7557057B637D027F57128386
:10535E0002E53F540F75F024A424E7F9747135F07B
:10536E007558FFF559895A7557057B707D027F6414
:10537E0012830220942005401288601288601288E1
:10538E0060128860128860128860128860128860CD
:10539E00128860128860209720154012886012884B
:1053AE0060128860128860128860128860128860AD
:1053BE00128860128860128860025653E541C45408
:1053CE000F75F024A424E7F9747135F07558FFF5C4
:1053DE0059895A7557057B157D027F09128302E59F
:1053EE0041540F75F024A424E7F9747135F0755803
:1053FE00FFF559895A7557057B227D027F16128358
:10540E00027557057558FF755974755ADB7B2F7DDC
:10541E00027F23128302E540C4540F75F024A424A6
:10542E00E7F9747135F07558FFF559895A755705B6
:10543E007B3C7D027F30128302E540540F75F024D1
:10544E00A424E7F9747135F07558FFF559895A752A
:10545E0057057B497D027F3D1283027557057558AE
:10546E00FF755974755ADB7B567D027F4A12830293
:10547E00E53FC4540F75F024A4244FF9747335F02E
:10548E007558FFF559895A7557057B637D027F570D
:10549E00128302E53F540F75F024A424E7F97471CA
:1054AE0035F07558FFF559895A7557057B707D0291
:1054BE007F641283022094247410253FF53F1288D6
:1054CE00601288601288601288601288601288608C
:1054DE001288601288601288601288602097247487
:1054EE00F0253FF53F12886012886012886012889E
:1054FE00601288601288601288601288601288605C
:10550E00128860025653E541C4540F75F024A4244A
:10551E00E7F9747135F07558FFF559895A755705C5
:10552E007B157D027F09128302E541540F75F0242D
:10553E00A424E7F9747135F07558FFF559895A7539
:10554E0057057B227D027F1612830275570575580B
:10555E00FF755974755ADB7B2F7D027F23128302F0
:10556E00E540C4540F75F024A424E7F9747135F0A6
:10557E007558FFF559895A7557057B3C7D027F306A
:10558E00128302E540540F75F024A424E7F97471D8
:10559E0035F07558FFF559895A7557057B497D02C7
:1055AE007F3D1283027557057558FF755974755AEC
:1055BE00DB7B567D027F4A128302E53FC4540F7592
:1055CE00F024A424E7F9747135F07558FFF5598964
:1055DE005A7557057B637D027F57128302E53F5450
:1055EE000F75F024A4244FF9747335F07558FFF538
:1055FE0059895A7557057B707D027F64128302208C
:10560E009420053F128860128860128860128860AC
:10561E001288601288601288601288601288601288
:10562E008860209720153F1288601288601288606B
:10563E001288601288601288601288601288601268
:10564E0088601288607557087558FF755977755AB6
:10565E009F7B107D06E4FF1283027557087558FF75
:10566E00755977755ABF025797E541C4540F75F0B7
:10567E0024A424E7F9747135F07558FFF559895A49
:10568E007557057B157D027F09128302E541540F84
:10569E0075F024A424E7F9747135F07558FFF559A7
:1056AE00895A7557057B227D027F16128302755724
:1056BE00057558FF755974755ADB7B2F7D027F2354
:1056CE00128302E540C4540F75F024A424E7F97444
:1056DE007135F07558FFF559895A7557057B3C7D24
:1056EE00027F30128302E540540F75F024A424E7A4
:1056FE00F9747135F07558FFF559895A7557057B50
:10570E00497D027F3D1283027557057558FF755905
:10571E0074755ADB7B567D027F4A128302E53FC4C5
:10572E00540F75F024A424E7F9747135F07558FF01
:10573E00F559895A7557057B637D027F571283028F
:10574E00E53F540F75F024A424E7F9747135F07514
:10575E0058FFF559895A7557057B707D027F641283
:10576E008302209503750C057557087558FF7559FA
:10577E0078755A5F7B107D06E4FF12830275570819
:10578E007558FF755978755A7F7B217D067F1112EA
:10579E008302024E467557067558FF755973755A32
:1057AE004F7B157D037F091283027557067558FFCF
:1057BE00755973755ADF7B227D037F16128302752E
:1057CE0057067558FF755971755AE77B3C7D037FF7
:1057DE00301283027557067558FF755972755A9BAC
:1057EE000263267557037558FF755971755AE77B15
:1057FE0015E4FD7F091283027557037558FF75591D
:10580E0072755A0B7B22E4FD7F16128302755703C5
:10581E007558FF755971755AE77B3CE4FD7F301260
:10582E0083027557037558FF755972755A2F7B4948
:10583E00E4FD7F3D1283027557037558FF7559714C
:10584E00755AE77B63E4FD7F571283027557037524
:10585E0058FF755972755A537B70E4FD7F6412833D
:10586E0002209503750C01E50CB40506128725750B
:10587E000C0AE50C640160030262DB128725E52C3D
:10588E00C4540F75F024A424E7F9747135F07558DB
:10589E00FFF559895A7557057B157D027F091283CD
:1058AE0002E52C540F75F024A424E7F9747135F039
